{
  "_format": "hh-sol-artifact-1",
  "contractName": "FlashLoan",
  "sourceName": "contracts/USDTFlash.sol",
  "abi": [
    {
      "inputs": [
        {
          "internalType": "address",
          "name": "_addressProvider",
          "type": "address"
        }
      ],
      "stateMutability": "nonpayable",
      "type": "constructor"
    },
    {
      "inputs": [],
      "name": "ADDRESSES_PROVIDER",
      "outputs": [
        {
          "internalType": "contract IPoolAddressesProvider",
          "name": "",
          "type": "address"
        }
      ],
      "stateMutability": "view",
      "type": "function"
    },
    {
      "inputs": [],
      "name": "POOL",
      "outputs": [
        {
          "internalType": "contract IPool",
          "name": "",
          "type": "address"
        }
      ],
      "stateMutability": "view",
      "type": "function"
    },
    {
      "inputs": [
        {
          "internalType": "address",
          "name": "asset",
          "type": "address"
        },
        {
          "internalType": "uint256",
          "name": "amount",
          "type": "uint256"
        },
        {
          "internalType": "uint256",
          "name": "premium",
          "type": "uint256"
        },
        {
          "internalType": "address",
          "name": "initiator",
          "type": "address"
        },
        {
          "internalType": "bytes",
          "name": "params",
          "type": "bytes"
        }
      ],
      "name": "executeOperation",
      "outputs": [
        {
          "internalType": "bool",
          "name": "",
          "type": "bool"
        }
      ],
      "stateMutability": "nonpayable",
      "type": "function"
    },
    {
      "inputs": [
        {
          "internalType": "address",
          "name": "_tokenAddress",
          "type": "address"
        }
      ],
      "name": "getBalance",
      "outputs": [
        {
          "internalType": "uint256",
          "name": "",
          "type": "uint256"
        }
      ],
      "stateMutability": "view",
      "type": "function"
    },
    {
      "inputs": [],
      "name": "owner",
      "outputs": [
        {
          "internalType": "address payable",
          "name": "",
          "type": "address"
        }
      ],
      "stateMutability": "view",
      "type": "function"
    },
    {
      "inputs": [
        {
          "internalType": "address",
          "name": "_token",
          "type": "address"
        },
        {
          "internalType": "uint256",
          "name": "_amount",
          "type": "uint256"
        }
      ],
      "name": "requestFlashLoan",
      "outputs": [],
      "stateMutability": "nonpayable",
      "type": "function"
    },
    {
      "inputs": [
        {
          "internalType": "address",
          "name": "_tokenAddress",
          "type": "address"
        }
      ],
      "name": "withdraw",
      "outputs": [],
      "stateMutability": "nonpayable",
      "type": "function"
    },
    {
      "stateMutability": "payable",
      "type": "receive"
    }
  ],
  "bytecode": "0x60c060405234801561001057600080fd5b50604051610ed3380380610ed3833981810160405281019061003291906101b3565b808073ffffffffffffffffffffffffffffffffffffffff1660808173ffffffffffffffffffffffffffffffffffffffff16815250508073ffffffffffffffffffffffffffffffffffffffff1663026b1d5f6040518163ffffffff1660e01b8152600401602060405180830381865afa1580156100b2573d6000803e3d6000fd5b505050506040513d601f19601f820116820180604052508101906100d691906101b3565b73ffffffffffffffffffffffffffffffffffffffff1660a08173ffffffffffffffffffffffffffffffffffffffff168152505050336000806101000a81548173ffffffffffffffffffffffffffffffffffffffff021916908373ffffffffffffffffffffffffffffffffffffffff160217905550506101e0565b600080fd5b600073ffffffffffffffffffffffffffffffffffffffff82169050919050565b600061018082610155565b9050919050565b61019081610175565b811461019b57600080fd5b50565b6000815190506101ad81610187565b92915050565b6000602082840312156101c9576101c8610150565b5b60006101d78482850161019e565b91505092915050565b60805160a051610cc06102136000396000818161022001528181610441015261053c015260006101cf0152610cc06000f3fe6080604052600436106100745760003560e01c80637535d2461161004e5780637535d246146101115780638da5cb5b1461013c578063d54ba95414610167578063f8b2cb4f146101905761007b565b80630542975c146100805780631b11d0ff146100ab57806351cff8d9146100e85761007b565b3661007b57005b600080fd5b34801561008c57600080fd5b506100956101cd565b6040516100a291906106d8565b60405180910390f35b3480156100b757600080fd5b506100d260048036038101906100cd91906107d6565b6101f1565b6040516100df919061088b565b60405180910390f35b3480156100f457600080fd5b5061010f600480360381019061010a91906108a6565b6102b0565b005b34801561011d57600080fd5b5061012661043f565b60405161013391906108f4565b60405180910390f35b34801561014857600080fd5b50610151610463565b60405161015e9190610930565b60405180910390f35b34801561017357600080fd5b5061018e6004803603810190610189919061094b565b610487565b005b34801561019c57600080fd5b506101b760048036038101906101b291906108a6565b6105d6565b6040516101c4919061099a565b60405180910390f35b7f000000000000000000000000000000000000000000000000000000000000000081565b600080858761020091906109e4565b90508773ffffffffffffffffffffffffffffffffffffffff1663095ea7b37f0000000000000000000000000000000000000000000000000000000000000000836040518363ffffffff1660e01b815260040161025d929190610a27565b6020604051808303816000875af115801561027c573d6000803e3d6000fd5b505050506040513d601f19601f820116820180604052508101906102a09190610a7c565b5060019150509695505050505050565b60008054906101000a900473ffffffffffffffffffffffffffffffffffffffff1673ffffffffffffffffffffffffffffffffffffffff163373ffffffffffffffffffffffffffffffffffffffff161461033e576040517f08c379a000000000000000000000000000000000000000000000000000000000815260040161033590610b06565b60405180910390fd5b60008190508073ffffffffffffffffffffffffffffffffffffffff1663a9059cbb338373ffffffffffffffffffffffffffffffffffffffff166370a08231306040518263ffffffff1660e01b81526004016103999190610b26565b602060405180830381865afa1580156103b6573d6000803e3d6000fd5b505050506040513d601f19601f820116820180604052508101906103da9190610b56565b6040518363ffffffff1660e01b81526004016103f7929190610a27565b6020604051808303816000875af1158015610416573d6000803e3d6000fd5b505050506040513d601f19601f8201168201806040525081019061043a9190610a7c565b505050565b7f000000000000000000000000000000000000000000000000000000000000000081565b60008054906101000a900473ffffffffffffffffffffffffffffffffffffffff1681565b60008054906101000a900473ffffffffffffffffffffffffffffffffffffffff1673ffffffffffffffffffffffffffffffffffffffff163373ffffffffffffffffffffffffffffffffffffffff1614610515576040517f08c379a000000000000000000000000000000000000000000000000000000000815260040161050c90610b06565b60405180910390fd5b600030905060008390506000839050600060405180602001604052806000815250905060007f000000000000000000000000000000000000000000000000000000000000000073ffffffffffffffffffffffffffffffffffffffff166342b0b77c86868686866040518663ffffffff1660e01b815260040161059b959493929190610c30565b600060405180830381600087803b1580156105b557600080fd5b505af11580156105c9573d6000803e3d6000fd5b5050505050505050505050565b60008173ffffffffffffffffffffffffffffffffffffffff166370a08231306040518263ffffffff1660e01b81526004016106119190610b26565b602060405180830381865afa15801561062e573d6000803e3d6000fd5b505050506040513d601f19601f820116820180604052508101906106529190610b56565b9050919050565b600073ffffffffffffffffffffffffffffffffffffffff82169050919050565b6000819050919050565b600061069e61069961069484610659565b610679565b610659565b9050919050565b60006106b082610683565b9050919050565b60006106c2826106a5565b9050919050565b6106d2816106b7565b82525050565b60006020820190506106ed60008301846106c9565b92915050565b600080fd5b600080fd5b600061070882610659565b9050919050565b610718816106fd565b811461072357600080fd5b50565b6000813590506107358161070f565b92915050565b6000819050919050565b61074e8161073b565b811461075957600080fd5b50565b60008135905061076b81610745565b92915050565b600080fd5b600080fd5b600080fd5b60008083601f84011261079657610795610771565b5b8235905067ffffffffffffffff8111156107b3576107b2610776565b5b6020830191508360018202830111156107cf576107ce61077b565b5b9250929050565b60008060008060008060a087890312156107f3576107f26106f3565b5b600061080189828a01610726565b965050602061081289828a0161075c565b955050604061082389828a0161075c565b945050606061083489828a01610726565b935050608087013567ffffffffffffffff811115610855576108546106f8565b5b61086189828a01610780565b92509250509295509295509295565b60008115159050919050565b61088581610870565b82525050565b60006020820190506108a0600083018461087c565b92915050565b6000602082840312156108bc576108bb6106f3565b5b60006108ca84828501610726565b91505092915050565b60006108de826106a5565b9050919050565b6108ee816108d3565b82525050565b600060208201905061090960008301846108e5565b92915050565b600061091a82610659565b9050919050565b61092a8161090f565b82525050565b60006020820190506109456000830184610921565b92915050565b60008060408385031215610962576109616106f3565b5b600061097085828601610726565b92505060206109818582860161075c565b9150509250929050565b6109948161073b565b82525050565b60006020820190506109af600083018461098b565b92915050565b7f4e487b7100000000000000000000000000000000000000000000000000000000600052601160045260246000fd5b60006109ef8261073b565b91506109fa8361073b565b9250828201905080821115610a1257610a116109b5565b5b92915050565b610a21816106fd565b82525050565b6000604082019050610a3c6000830185610a18565b610a49602083018461098b565b9392505050565b610a5981610870565b8114610a6457600080fd5b50565b600081519050610a7681610a50565b92915050565b600060208284031215610a9257610a916106f3565b5b6000610aa084828501610a67565b91505092915050565b600082825260208201905092915050565b7f596f7520617265206e6f7420746865206f776e65722100000000000000000000600082015250565b6000610af0601683610aa9565b9150610afb82610aba565b602082019050919050565b60006020820190508181036000830152610b1f81610ae3565b9050919050565b6000602082019050610b3b6000830184610a18565b92915050565b600081519050610b5081610745565b92915050565b600060208284031215610b6c57610b6b6106f3565b5b6000610b7a84828501610b41565b91505092915050565b600081519050919050565b600082825260208201905092915050565b60005b83811015610bbd578082015181840152602081019050610ba2565b60008484015250505050565b6000601f19601f8301169050919050565b6000610be582610b83565b610bef8185610b8e565b9350610bff818560208601610b9f565b610c0881610bc9565b840191505092915050565b600061ffff82169050919050565b610c2a81610c13565b82525050565b600060a082019050610c456000830188610a18565b610c526020830187610a18565b610c5f604083018661098b565b8181036060830152610c718185610bda565b9050610c806080830184610c21565b969550505050505056fea2646970667358221220541949da61f4ba8c95de7db2d1703d69ad318f0ca9f74399e7c369fdf83c63ab64736f6c634300081b0033",
  "linkReferences": {},
  "deployedLinkReferences": {}
}